:020000040800F2
:1000000098D90120F1190008CD190008CF1900086E
:10001000D1190008D3190008D51900080000000004
:10002000000000000000000000000000D7190008D8
:10003000D919000800000000DB190008DD190008CC
:10004000091A00080D1A0008111A0008151A0008EC
:10005000191A00081D1A0008211A0008251A00089C
:10006000291A00082D1A0008311A0008351A00084C
:10007000391A00083D1A0008411A0008451A0008FC
:10008000491A00084D1A0008511A0008551A0008AC
:10009000591A00085D1A0008611A0008651A00085C
:1000A000691A00086D1A0008711A0008751A00080C
:1000B000791A00087D1A0008811A0008851A0008BC
:1000C000891A00088D1A0008911A0008951A00086C
:1000D000991A00089D1A0008A11A0008A51A00081C
:1000E000A91A0008AD1A0008B11A0008B51A0008CC
:1000F000B91A0008BD1A0008C11A0008C51A00087C
:10010000C91A0008CD1A0008D11A0008D51A00082B
:10011000D91A0008DD1A0008E11A0008E51A0008DB
:10012000E91A0008ED1A0008F11A0008F51A00088B
:10013000F91A0008FD1A0008011B0008051B000839
:10014000091B00080D1B0008111B0008151B0008E7
:10015000191B00081D1B0008211B0008251B000897
:10016000291B00082D1B0008311B0008351B000847
:10017000391B00083D1B0008411B0008000000005F
:10018000451B0008491B000838B5040001D10120B7
:1001900032BD606A30B96068B0F5827F05D0002159
:1001A000E16102E00020206160610020A06204F1B2
:1001B0005005687820B900212970204600F05EFBC8
:1001C0000220687000F07FFA6068A168E26800F4BD
:1001D000827001F404410843217C02F40062104360
:1001E000227D01F002010843A16902F001021043DF
:1001F000227F01F40071084394F8201002F03802C5
:100200001043A26A01F080010843216802F4005201
:1002100010430860A06994F824102268000C00F0D4
:10022000040001F01001084350602068C16921F406
:100230000061C161002068600121697032BD2DE953
:10024000F843054605F15007002638780C469146DC
:100250009846012808BF022000F08F8001203870E6
:1002600000F06CFB7978012918BF02264DD1002CD3
:1002700018BFB9F1000F7DD00321797000237B6096
:100280002C63A5F83490A5F836900021A963AB87BC
:10029000E9876B642964AB68B3F5004F09D129681D
:1002A0000B6823F040030B6029680C6844F4804419
:1002B0000C6029680B685C0603D40B6843F04003AC
:1002C0000B604446E968B1F5006F696821D10029E7
:1002D00018BFB9F1010F00F0EAF9804604E0296B7C
:1002E0000A88C26000F0C8F9E88E002833D0286878
:1002F00081688A07F3D400F021FBA0EB0800A0423C
:1003000004D314F1010FEFD0032634E0002CEBD11D
:10031000FAE7002918BFB9F1010F00F0BCF98046D7
:1003200006E0296B0A780273286B411C00F0A6F9DD
:10033000E88E80B1286881688A07F2D400F0FEFA5E
:10034000A0EB0800A04203D314F1010FF0D0DBE7CB
:10035000002CEDD1D8E742462146284600F041FA6C
:1003600008B120207860A86810B900F08CF9009AD4
:10037000786800B1012600F0A1F8BDE8F2832DE90C
:10038000F8430446002660680D469146984604F1FD
:100390005007B0F5827F04BFA068002809D1042669
:1003A0007E70CDF800804B462A46204600F08CF83F
:1003B00082E03878012808BF02207DD00120387003
:1003C00000F0BCFA7978012918BF022672D1002DFD
:1003D00018BFB9F1000F6CD00421797000227A6047
:1003E000A563A4F83C90A4F83E9000212163A28666
:1003F000E18622646164A268B2F5004F09D12168E8
:100400000A6822F040020A6021680B6823F48043E6
:100410000B6021680A68530603D40A6842F0400260
:100420000A600546E168002926D108E0007BA16B3F
:100430000870A06B421CA263E08F411EE187E08F31
:1004400068B320688168CA07F0D400F077FA401BCF
:10045000404504D318F1010FF1D003262AE0B8F18A
:10046000000FECD1F9E7C068A16B0880A06B821C7B
:10047000A263E08F411EE187E08F80B12068816830
:10048000CA07F0D400F05AFA401B404503D318F1D4
:10049000010FF1D0E1E7B8F1000FEDD1DDE72A4619
:1004A0004146204600F075F908B120207860786850
:1004B00000B1012600F002F8BDE8F2830120787057
:1004C00000213970304670472DE9FC47054605F19B
:1004D00050070C46387891464FF001084FF0000A5B
:1004E000012808BF022000F0C5801E4687F8008062
:1004F00000F024FA7B78012B0AD06968B1F5827F7D
:1005000002BFA9680029042B02D04FF0020AACE018
:10051000002C18BFB9F1000F00D00EB9C246A4E0FC
:100520007B78042B1CBF4FF0050C87F801C000231B
:100530007B60C5F83890EE87AE872C63EE86AE867A
:100540002B646B6429680C68630603D40C6844F060
:1005500040040C60E9680A9CB1F5006F696838D105
:10056000002918BF012E00F0A2F88146E88E00286D
:1005700004BFE88F002868D02968886882070BD5F7
:10058000E88E002818BFB8F1000F05D0286B02884C
:10059000CA60D04600F070F829688868C2070CD598
:1005A000E88F50B1C868A96B08804FF00108A86BAC
:1005B000821CAA63E88F411EE98700F0BFF9A0EB17
:1005C0000900A042D2D314F1010FCFD04FF0030A9B
:1005D0004BE0002918BF012E00F05DF88146E88E3F
:1005E000002804BFE88F00282FD029688868820778
:1005F0000DD5E88E002818BFB8F1000F07D0286B82
:1006000002780A73D046286B411C00F037F829683D
:100610008868C2070CD5E88F50B1C868A96B08700C
:100620004FF00108A86B421CAA63E88F411EE987BE
:1006300000F084F9A0EB0900A04203D314F1010FEC
:10064000CDD0C3E7002CCAD1C0E74A462146284690
:1006500000F0C7F820B120204FF0010A786004E0D4
:10066000A86810B900F00FF80098012179700020F7
:1006700038705046BDE8F687286B811C2963E88EE8
:10068000411EE9867047002100912968CA680092DE
:1006900089680091704709D1296B2B680A781A7311
:1006A000296B4A1C2A63E98E4A1EEA86704709D1E3
:1006B000296B2B680A88DA60296B8A1C2A63E98E09
:1006C0004A1EEA8670472068016821F040010160F7
:1006D00070472DE9F843089C05460E4690461F4694
:1006E00000F02CF9381A241800F028F981465448F3
:1006F00001684901090D6143009105E0009800B9C6
:1007000000240098401E0090286881683140B14262
:100710000CBF01200020404532D017F1010FF3D06B
:1007200000F00CF9A0EB0900A04201D2002CE5D1A9
:100730002868416821F0E00141606868B0F5827F77
:1007400008D1A868B0F5004F18BFB0F5806F01D18F
:1007500000F019F8A86AB0F5005F09D128680168AF
:1007600021F4005101602868026842F400520260DE
:1007700005F150000121417000220270032000E0C9
:100780000020BDE8F2832868016821F04001016083
:1007900070471CB504460B466068B0F5827F08D1EF
:1007A000A068B0F5004F18BFB0F5806F05D1FFF716
:1007B0008AFF6068B0F5827F07D1A0680092B0F52B
:1007C000806F03D00022802102E0009200220121EC
:1007D0002046FFF77EFF10B100F02BF816BD002079
:1007E00016BD7CB504461648164E0B460168182502
:1007F000B1FBF5F5B5FBF6F64FF47A70464300967B
:100800006168B1F5827F09D10092802100222046E3
:10081000FFF75FFF58B100F00CF876BD009830B1DB
:100820000098401E0090216888680106F6D40020D8
:1008300076BD606D40F020006065032070470000C9
:1008400090D5012040420F0081B00020009000228E
:100850003548416841F480414160416801F480417C
:10086000009100990092036843F080530360006890
:1008700000F080500090009801B0704710B586B02D
:1008800000F03BF821682948814212D10022284813
:100890000092416941F480514161416901F4805104
:1008A000009100990092E02100F02DF8052100F060
:1008B0001FF806B010BD10B586B000F01EF8216814
:1008C0001C48814212D1002219480092016941F46A
:1008D00000210161016901F4002100910099009259
:1008E000032100F010F8082100F002F806B010BD56
:1008F0000591049201A900F027B8044614220021B2
:1009000001A800F02DB9036843F00103036002223F
:10091000006800F0010000900098074801910292E1
:10092000002103910322704740380240003001400B
:1009300030380240004C004000000240014840684E
:10094000704700BF84D501202DE9F84F0D460026E1
:100950007849794A0F23044601202F68B04000EA05
:100960000708804540F0D5804FEA460C032707FA78
:100970000CF76FEA070E6F6807F00309B9F1010F72
:100980001CBF07F00307022F12D1A768D5F80C90FF
:100990000EEA070709FA0CF949EA0707A760676832
:1009A00027EA00006F68C7F30017B740384360605C
:1009B000B0002F7907F00307032F21D0E768D5F89F
:1009C00008900EEA070709FA0CF949EA0707E760F9
:1009D0002F7907F00307022F12D1F70804EB8707DE
:1009E00000F01C09D7F820A003FA09FB2AEA0B0A39
:1009F000D5F810B00BFA09F949EA0A09C7F82090AE
:100A000027680EEA070E2F7907F0030707FA0CF79D
:100A100047EA0E0CC4F800C06F6817F4403F78D066
:100A20004FF0000ECDF800E04FEA960C176847F43F
:100A30008047176000F00C00D2F800E03F4F0EF442
:100A4000804ECDF800E0DDF800E057F82C7003FA96
:100A500000FE27EA0E0E3A4FBC4208BF002722D004
:100A6000384FBC4208BF01271DD0374FBC4208BFDA
:100A7000022718D0354FBC4208BF032713D0344F8C
:100A8000BC4208BF04270ED0324FBC4208BF052726
:100A900009D0314FBC4208BF062704D02F4FBC42BB
:100AA0000CBF0727082707FA00F040EA0E00DFF81E
:100AB0008CE04EF82C006FEA0800D1F808C06F688F
:100AC00000EA0C0CFF0248BF48EA0C0CC1F808C051
:100AD000D1F80CC06F6800EA0C0CBF0248BF48EAAE
:100AE0000C0CC1F80CC0D1F804C06F6800EA0C0C03
:100AF000BF0348BF48EA0C0CC1F804C0D1F800C0DD
:100B000000EA0C0C6868C00348BF48EA0C0CC1F846
:100B100000C0761C0F2E7FF61FAFBDE8F18F006975
:100B2000084018BF0120C0B2704702B909048161B2
:100B300070470000003C0140443802400838014042
:100B4000000002400004024000080240000C024085
:100B5000001002400014024000180240001C024035
:100B600010B5044610460A460146204600F002F839
:100B7000204610BD62F30F2262F31F42401810F0AE
:100B8000030308D0C91A1FD3DB0748BF00F8012DA3
:100B900028BF20F8022D130030B414461546103932
:100BA00028BF20E93C00FAD8490728BF20E90C00FB
:100BB00048BF40F8042D890028BF20F8022D48BF07
:100BC00000F8012D30BC7047C91818BF00F8012D7E
:100BD000CB0728BF00F8012D7047F0B4024610681B
:100BE00095681318506803EB5004C00748BF4D4484
:100BF000A3422DD013F8016B16F0030004BF13F8C5
:100C0000010BC01C31090F2907D113F8011B0F314B
:100C100003E013F8017B05F8017B401EF9D10029A0
:100C2000E6D013F8010BC6F38106032E08BF13F8B4
:100C3000016B00EB0620404228440026B71E8F427D
:100C40001EBF10F8017B05F8017B761CF6D1CFE7BB
:100C5000F0BC02F10C0070472DE9F843040016D0F7
:100C60002078DFF80463C10713D5B06800F00C00EA
:100C7000042807D0B06800F00C0008283DD1706847
:100C800041023AD53068810303D56068002800F03E
:100C900065812078B54F810719D5B06810F00C0F29
:100CA00007D0B06800F00C0008285BD170684102E2
:100CB00058D43068810703D5E068012840F04E81A0
:100CC0003168206921F0F80141EAC00131602178E2
:100CD000080779D56069A649002868D001220A6012
:100CE000FFF72CFE0546706F81076DD4FFF726FED7
:100CF000401B0228F7D9032033E16068B0F5803F3C
:100D000004D1306840F48030306011E0B0F5A02F9D
:100D1000306806D140F480203060316841F4803181
:100D200005E020F480303060316821F480213160AA
:100D3000606858B1FFF702FE054630688103A8D409
:100D4000FFF7FCFD401B6528F7D3D4E7FFF7F6FD5E
:100D50000546306881039CD5FFF7F0FD401B6528F0
:100D6000F7D3C8E7E068A8B101213960FFF7E6FDD5
:100D700005463068810705D4FFF7E0FD401B0228D7
:100D8000F7D9B8E73068216920F0F80040EAC100DF
:100D900030609CE73860FFF7D1FD05463168880771
:100DA00095D5FFF7CBFD401B0228F7D9A3E70860D4
:100DB000FFF7C4FD0546706F810705D5FFF7BEFD3F
:100DC000401B0228F7D996E72078410760D5306CA0
:100DD0000025C1000BD4002000900125316C41F0AA
:100DE00080513164306C00F0805000900098DFF842
:100DF0008481D8F80000C10513D4D8F8000040F46D
:100E00008070C8F80000FFF799FD8146D8F800000F
:100E1000C10506D4FFF792FDA0EB09000228F5D921
:100E200069E7A068012805D00528306F06D140F099
:100E300004003067306F40F0010005E040084000DA
:100E40003067306F20F00400306741F28938A068C5
:100E500060B1FFF773FD8146306F810713D4FFF750
:100E60006DFDA0EB09004045F6D344E7FFF766FDB2
:100E70008146306F810706D5FFF760FDA0EB0900C2
:100E80004045F6D337E71DB1306C20F08050306418
:100E9000A069002864D0B16801F00C0108293AD09B
:100EA00002282AD100203866FFF748FD0546306841
:100EB000810105D5FFF742FD401B0228F7D91AE74B
:100EC000E069216A626A0843A16A490840EA82101F
:100ED000491E40EA0140E16A40EA01607060012079
:100EE0003866FFF72BFD04463068810138D4FFF7E0
:100EF00025FD001B0228F7D9FDE600203866FFF724
:100F00001DFD0446306881012AD5FFF717FD001B3F
:100F10000228F7D9EFE6012820D07068E26900F4D2
:100F20008001914202BF00F03F01226A914201BF5D
:100F300047F6C0710140626AB1EB821F0ED1A26A0E
:100F400000F4403101F580315208B1EB024F02BF8D
:100F500000F07060E16AB0EB016F01D0012000E0A9
:100F60000020BDE8F28300BF003802400000474285
:100F7000800E47420070004070B586B000F002F964
:100F800000F09BF800F0F6F800200090714C7248D9
:100F9000724D016841F001010160026802F0010236
:100FA00000920022009900921821036843F0020386
:100FB0000360006800F00200009000982046FFF7F0
:100FC000B4FD04200021019002910122039201A9A5
:100FD0002046FFF7B9FC182101910122029200215D
:100FE00003910322049201A92046FFF7ADFC5C485F
:100FF000E8614FF48271296200206862A862E862A9
:10100000012129634FF4007068632021A963002047
:10101000E863286468640A21A96405F11C00FFF7ED
:10102000B3F808B100F0ABF84E4868674FF4E1310F
:10103000A96705F184060020E867C5F880003060E4
:101040000C21B060F060716005F1740000F0B4F83C
:1010500008B100F094F800F051F910202881042123
:1010600005F11C00298228606C60EC602946FE2096
:1010700000F0C8F905F1C0042B46082205F1BC01B7
:10108000002000F092F92946002000F0D0F929460E
:10109000F02000F0D0F93448726B0195284400909C
:1010A00023460121002000F0D4F9726BB1EE040A4E
:1010B0000021204600F020FADEE780B592B0302211
:1010C000002106A8FFF74CFD00F054F80020009026
:1010D0002648016841F0805101600021006800F05D
:1010E000805000900098224800910221026842F44A
:1010F000804202600122006800F480400090009865
:101100000691099210210A91022200210C920D9160
:10111000082248210E920F9102220421109211916F
:1011200006A8FFF799FD08B100F029F80221029105
:101130000F204FF4805101900022049103920592F8
:10114000022101A800F0FEF908B100F018F813B070
:1011500000BD0000000002403038024000000020C6
:1011600000300140004C004080D501004038024072
:10117000007000401422002101A8FFF7F1BC72B6F4
:10118000FEE7000080B50B48016841F40071016082
:10119000026842F480620260016841F4807101607B
:1011A000032000F082FA0F2000F0C6FAFFF74CFB94
:1011B000002002BD003C024038B5040001D10120EE
:1011C00032BD00F019F808B900F01AF800F01DF867
:1011D00000F025F8FFE7416100F001F832BD20681A
:1011E000C16841F40051C16000206860202169702D
:1011F0002020A8700020704704F13C0568787047F3
:10120000002129702046FFF756BB24206870206813
:10121000C16821F40051C160204600F00AB820687E
:10122000016921F4904101612068416921F02A019E
:10123000704770B5044622681169E06821F4405196
:1012400001431161D3682748A168034020690B431B
:1012500061690343E0690B430343D3605169A069AB
:1012600021F44071014351611F498A421CBF1F484C
:10127000824202D100F0F4F901E000F0E9F962687D
:101280002568E4691921B4F5004FA1FB00016FF056
:10129000630612D1D30F520000F06EFA00F028F866
:1012A000F60032366420B6FBF0F0420002F4F87229
:1012B00002EB011200F0070010E0930F920000F023
:1012C0005BFA00F015F8360132366420B6FBF0F018
:1012D00000F0F00202EB011200F00F008018A8608D
:1012E00070BD0000F369FFFF0010014000140140D1
:1012F0006421B0FBF1F106FB010670470E4801685E
:10130000CA010AD4016841F08071016000220B48D3
:101310004260016841F001010160704730B5084A40
:10132000084C136825680849B5FBF1F14843146877
:10133000E41A8442FBD330BDFCED00E0001000E075
:10134000041000E090D5012040420F000189406860
:1013500002E00189406802E00122FFF7E6BB0022BB
:10136000FFF7E3BBFFF7DABF11B581B00C46206889
:101370000A23012201A9FEF762FF0028F7D116BD5A
:1013800038B504460D4628680A2304222146FEF794
:10139000F6FF0028F7D132BD10B50446218AE06877
:1013A000FFF7BDFB0128F9D010BDF8B500F024F817
:1013B000394644F01000FFF7D7FF00F019F800F0AD
:1013C00041F839462846FFF7DBFF0DE0F8B500F09D
:1013D00013F8394644F05000FFF7C6FF00F008F854
:1013E00039462846FFF7C0FF3846BDE8F240ADE772
:1013F000701E3946C0B2B7E704461F460D46164672
:101400003846A6E738B504460D462846FFF7A1FF43
:1014100029462046FFF7A8FF2846BDE8324095E759
:10142000134641EA00110822C9B20120CEE70B465B
:101430000146032204E00B46014608220320C5E7CB
:101440000220C3E707208DE70A2303226946FEF73F
:1014500096BF2DE9FC41099E144698463246FFF797
:10146000DFFFFFF7EFFF3046FFF773FF00F038F8BC
:1014700031460320FFF778FFFFF7E4FF00F0FFF9A4
:101480000746002514E000F02BF83068FFF7DCFF7A
:101490000028FAD19DF80000010654BF00214FF04A
:1014A0007F4100F01FF848F825106D1C00F012F87D
:1014B000A542E8D3089C00F0E2F9C71B276000F0C2
:1014C0000FF831460F20FFF74FFF3046FFF73EFF82
:1014D000BDE8F3810021ADF800108DF802107047CF
:1014E000304659E79DF8012041EA00419DF802008D
:1014F00041EA02210143704730B500231BE000EBB5
:1015000083044D1CD4ED000AF8EEE00A60EE800A78
:101510009FED0A1A01EE905A80EE811AF8EEE11A58
:10152000C1EE211A9FED062A21EE822ABDEEC22AC3
:1015300084ED002A5B1C9342E1D330BDFEFFFF4ADD
:10154000002474492DE9F04104000F4654D0494E5F
:10155000306800F00700B84202D200F073F84BD1B7
:101560002068454D810712D5400703D5A96841F48D
:10157000E051A9602078010703D5A86840F46040D5
:10158000A860A968A06821F0F0010143A960217852
:10159000C80729D56068012802D129688A0305E0B7
:1015A000022818BF032803D129688A0103D423E045
:1015B00029688A0720D5A968890840EA8100A860BF
:1015C000FFF7BCF98046A868616800F00C00B0EB3A
:1015D000810F09D0FFF7B2F9A0EB080041F2893181
:1015E0008842F0D303202BE0306800F007008742E8
:1015F00004D200F027F801D0012021E02078410733
:1016000005D5AA68E06822F4E0520243AA60217876
:10161000080706D5A968206921F4604141EAC001A4
:10162000A96000F031F9AA681449154BC2F30312FE
:10163000895CC84018601348006800F07DF80020FD
:10164000BDE8F0813770316801F00701B942704799
:101650000B480D4A006813680C49C3F3822206E068
:101660000748094A006813680849C3F34232895C95
:10167000C8407047003C024000380240581900083A
:1016800090D501208CD5012008380240001A0008AE
:101690000901020002D4224881547047214B02F014
:1016A0000F021A4402F8041C70471F4B19684FF6CA
:1016B000FF020002114000F4E06008431B490843A8
:1016C0001860704770B5184B1C68C4F302230124DE
:1016D000C3F10705052D2EBF0F2504FA05F56D1E74
:1016E0001E1D072E34BF0023DB1E2940994004FA3B
:1016F00003F3BDE870405B1E1A401143C8E7401E6B
:10170000B0F1807F01D3012070470949094A486040
:101710000023F02010708B600720086000207047C5
:1017200000E400E018ED00E00CED00E00000FA0538
:1017300010E000E023ED00E038B50D4D0D4B2A78A8
:1017400004464FF47A711868B1FBF2F2B0FBF2F084
:10175000FFF7D5FF50B9102C08D2002221464FF0D8
:10176000FF30FFF7AFFFAC60002032BD012032BD7B
:1017700084D5012090D50120D3BBD9B1B2F5803FEB
:101780005BD2022A1ED98C46B1FBF2F102FB11C3D7
:101790001B0443EA1043B3FBF2FC02FB1C3380B290
:1017A00040EA0343B3FBF2F002FB103240EA0C4084
:1017B00000237047022A05D98446B0FBF2F002FBF1
:1017C00010C270474AB105D100F0010249085FEA32
:1017D0003000704700220023704700F085B80B00EE
:1017E0000200002100207047F7D300220023704739
:1017F000904271EB030CF2D370B5B1FA81F4B3FAF5
:1018000083F52C1BA340C4F1200532FA05F63343BF
:10181000A2405FF00046E64002E05B085FEA320269
:10182000841A71EB030524BF204629467641F4D380
:1018300002000B003000002170BD70B5B1FA81F4D8
:10184000B2FA82F5C4F120046419B4F12006DAD3A7
:10185000B2405FF00044F440002502E052085FEA25
:101860003303C61A71EB020E24BF30467146644141
:101870006D41F3D302000B002000290070BD00B5BC
:1018800000211020ABBE00BD30B5144C606800F0E4
:101890000C00042802D0082802D01DE0104830BDFA
:1018A000226820680023410202F03F0204D5256827
:1018B0000B49C5F3881003E020680A49C0F388107B
:1018C000A1FB0001FFF758FF2168C1F30141491C4A
:1018D0004900B0FBF1F030BD024830BD0438024091
:1018E00040787D010024F4007047000010B50749DE
:1018F00079441831064C7C44163404E00A68081D0B
:10190000114488470146A142F8D110BD2C000000C7
:10191000380000004EF68851CEF20001086840F40D
:1019200070000860BFF34F8FBFF36F8F4FF00170EF
:10193000E1EE100A70470000A3F2FFFF1002000062
:10194000840A0000000000200248016841F4700190
:101950000160704788ED00E000000000000000001A
:10196000010203040607080900F00DF8002801D061
:10197000FFF7BCFFAFF300800020AFF30080FFF75C
:10198000FBFA00F002F80120704700F001B80000F7
:101990000746384600F002F8FBE7000080B5AFF3D9
:1019A0000080024A11001820ABBEFBE726000200AF
:1019B0000548014603B4684680F30988AFF3008008
:1019C000FFF7A8FFFFF7D0FFA5EDF5FEFEE7FEE766
:1019D000FEE7FEE7FEE770477047704700F000B88B
:1019E0000248416802788A184260704784D5012015
:1019F000014880470148004749190008B11900080B
:101A00000000000001020304FFF7FEBFFFF7FEBF66
:101A1000FFF7FEBFFFF7FEBFFFF7FEBFFFF7FEBFFA
:101A2000FFF7FEBFFFF7FEBFFFF7FEBFFFF7FEBFEA
:101A3000FFF7FEBFFFF7FEBFFFF7FEBFFFF7FEBFDA
:101A4000FFF7FEBFFFF7FEBFFFF7FEBFFFF7FEBFCA
:101A5000FFF7FEBFFFF7FEBFFFF7FEBFFFF7FEBFBA
:101A6000FFF7FEBFFFF7FEBFFFF7FEBFFFF7FEBFAA
:101A7000FFF7FEBFFFF7FEBFFFF7FEBFFFF7FEBF9A
:101A8000FFF7FEBFFFF7FEBFFFF7FEBFFFF7FEBF8A
:101A9000FFF7FEBFFFF7FEBFFFF7FEBFFFF7FEBF7A
:101AA000FFF7FEBFFFF7FEBFFFF7FEBFFFF7FEBF6A
:101AB000FFF7FEBFFFF7FEBFFFF7FEBFFFF7FEBF5A
:101AC000FFF7FEBFFFF7FEBFFFF7FEBFFFF7FEBF4A
:101AD000FFF7FEBFFFF7FEBFFFF7FEBFFFF7FEBF3A
:101AE000FFF7FEBFFFF7FEBFFFF7FEBFFFF7FEBF2A
:101AF000FFF7FEBFFFF7FEBFFFF7FEBFFFF7FEBF1A
:101B0000FFF7FEBFFFF7FEBFFFF7FEBFFFF7FEBF09
:101B1000FFF7FEBFFFF7FEBFFFF7FEBFFFF7FEBFF9
:101B2000FFF7FEBFFFF7FEBFFFF7FEBFFFF7FEBFE9
:101B3000FFF7FEBFFFF7FEBFFFF7FEBFFFF7FEBFD9
:101B4000FFF7FEBFFFF7FEBFFFF7FEBFF2A60001E3
:101B5000F001FF30750001F1FF01F1FF01F1FF011C
:101B6000F1FF01F1FF01F1FF01F1FF01F1FF01F1CF
:101B7000FF01F1FF01F1FF01F1FF01F1FF01F1FFB1
:101B800001F1FF01F1FF01F1FF01F1FF01F1FF019F
:101B9000F1FF01F1FF01F1FF01F1FF01F1FF01F19F
:101BA000FF01F1FF01F1FF01F1FF01F1FF01F1FF81
:101BB00001F1FF01F1FF01F1FF01F1FF01F1FF016F
:101BC000F1FF01F1FF01F1FF01F1FF01F1FF01F16F
:101BD000FF01F1FF01F1FF01F1FF01F1FF01F1FF51
:101BE00001F1FF01F1FF01F1FF01F1FF01F1FF013F
:101BF000F1FF01F1FF01F1FF01F1FF01F1FF01F13F
:101C0000FF01F1FF01F1FF01F1FF01F1FF01F1FF20
:101C100001F1FF01F1FF01F1FF01F1FF01F1FF010E
:101C2000F1FF01F1FF01F1FF01F1FF01F1FF01F10E
:101C3000FF01F1FF01F1FF01F1FF01F1FF01F1FFF0
:101C400001F1FF01F1FF01F1FF01F1FF01F1FF01DE
:101C5000F1FF01F1FF01F1FF01F1FF01F1FF01F1DE
:101C6000FF01F1FF01F1FF01F1FF01F1FF01F1FFC0
:101C700001F1FF01F1FF01F1FF01F1FF01F1FF01AE
:101C8000F1FF01F1FF01F1FF01F1FF01F1FF01F1AE
:101C9000FF01F1FF01F1FF01F1FF01F1FF01F1FF90
:101CA00001F1FF01F1FF01F1FF01F1FF01F1FF017E
:101CB000F1FF01F1FF01F1FF01F1FF01F1FF01F17E
:101CC000FF01F1FF01F1FF01F1FF01F1FF01F1FF60
:101CD00001F1FF01F1FF01F1FF01F1FF01F1FF014E
:101CE000F1FF01F1FF01F1FF01F1FF01F1FF01F14E
:101CF000FF01F1FF01F1FF01F1FF01F1FF01F1FF30
:101D000001F1FF01F1FF01F1FF01F1FF01F1FF011D
:101D1000F1FF01F1FF01F1FF01F1FF01F1FF01F11D
:101D2000FF01F1FF01F1FF01F1FF01F1FF01F1FFFF
:101D300001F1FF01F1FF01F1FF01F1FF01F1FF01ED
:101D4000F1FF01F1FF01F1FF01F1FF01F1FF01F1ED
:101D5000FF01F1FF01F1FF01F1FF01F1FF01F1FFCF
:101D600001F1FF01F1FF01F1FF01F1FF01F1FF01BD
:101D7000F1FF01F1FF01F1FF01F1FF01F1FF01F1BD
:101D8000FF01F1FF01F1FF01F1FF01F1FF01F1FF9F
:101D900001F1FF01F1FF01F1FF01F1FF01F1FF018D
:101DA000F1FF01F1FF01F1FF01F1FF01F1FF01F18D
:101DB000FF01F1FF01F1FF01F1FF01F1FF01F1FF6F
:101DC00001F1FF01F1FF01F1FF01F1FF01F1FF015D
:101DD000F1FF01F1FF01F1FF01F1FF01F1FF01F15D
:101DE000FF01F1FF01F1FF01F1FF01F1FF01F1FF3F
:101DF00001F1FF01F1FF01F1FF01F1FF01F1FF012D
:101E0000F1FF01F1FF01F1FF01F1FF01F1FF01F12C
:101E1000FF01F1FF01F1FF01F1FF01F1FF01F1FF0E
:101E200001F1FF01F1FF01F1FF01F1FF01F1FF01FC
:101E3000F1FF01F1FF01F1FF01F1FF01F1FF01F1FC
:101E4000FF01F1FF01F1FF01F1FF01F1FF01F1FFDE
:101E500001F1FF01F1FF01F1FF01F1FF01F1FF01CC
:101E6000F1FF01F1FF01F1FF01F1FF01F1FF01F1CC
:101E7000FF01F1FF01F1FF01F1FF01F1FF01F1FFAE
:101E800001F1FF01F1FF01F1FF01F1FF01F1FF019C
:101E9000F1FF01F1FF01F1FF01F1FF01F1FF01F19C
:101EA000FF01F1FF01F1FF01F1FF01F1FF01F1FF7E
:101EB00001F1FF01F1FF01F1FF01F1FF01F1FF016C
:101EC000F1FF01F1FF01F1FF01F1FF01F1FF01F16C
:101ED000FF01F1FF01F1FF01F1FF01F1FF01F1FF4E
:101EE00001F1FF01F1FF01F1FF01F1FF01F1FF013C
:101EF000F1FF01F1FF01F1FF01F1FF01F1FF01F13C
:101F0000FF01F1FF01F1FF01F1FF01F1FF01F1FF1D
:101F100001F1FF01F1FF01F1FF01F1FF01F1FF010B
:101F2000F1FF01F1FF01F1FF01F1FF01F1FF01F10B
:101F3000FF01F1FF01F1FF01F1FF01F1FF01F1FFED
:101F400001F1FF01F1FF01F1FF01F1FF01F1FF01DB
:101F5000F1FF01F1FF01F1FF01F1FF01F1FF01F1DB
:101F6000FF01F1FF01F1FF01F1FF01F1FF01F1FFBD
:101F700001F1FF01F1FF01F1FF01F1FF01F1FF01AB
:101F8000F1FF01F1FF01F1FF01F1FF01F1FF01F1AB
:101F9000FF01F1FF01F1FF01F1FF01F1FF01F1FF8D
:101FA00001F1FF01F1FF01F1FF01F1FF01F1FF017B
:101FB000F1FF01F1FF01F1FF01F1FF01F1FF01F17B
:101FC000FF01F1FF01F1FF01F1FF01F1FF01F1FF5D
:101FD00001F1FF01F1FF01F1FF01F1FF01F1FF014B
:101FE000F1FF01F1FF01F1FF01F1FF01F1FF01F14B
:101FF000FF01F1FF01F1FF01F1FF01F1FF01F1FF2D
:1020000001F1FF01F1FF01F1FF01F1FF01F1FF011A
:10201000F1FF01F1FF01F1FF01F1FF01F1FF01F11A
:10202000FF01F1FF01F1FF01F1FF01F1FF01F1FFFC
:1020300001F1FF01F1FF01F1FF01F1FF01F1FF01EA
:10204000F1FF01F1FF01F1FF01F1FF01F1FF01F1EA
:10205000FF01F1FF01F1FF01F1FF01F1FF01F1FFCC
:1020600001F1FF01F1FF01F1FF01F1FF01F1FF01BA
:10207000F1FF01F1FF01F1FF01F1FF01F1FF01F1BA
:0E208000280143010001221008000124F40091
:04000005080019B125
:00000001FF
